:100000000C942A000C9447000C9447000C94470071
:100010000C9447000C9447000C9447000C94470044
:100020000C9447000C9447000C9447000C94470034
:100030000C9447000C9447000C9447000C94470024
:100040000C9447000C9447000C9447000C94470014
:100050000C94470011241FBECFE5D4E0DEBFCDBF16
:1000600010E0A0E6B0E0EEE2F7E002C005900D92ED
:10007000A036B107D9F710E0A0E6B0E001C01D92AC
:10008000A036B107E1F70E9449000C9495030C9447
:100090000000DF92EF92FF920F931F938FEF87BBC9
:1000A00090ECE92EDD24DA9420E931E009EF84EACE
:1000B000F82EA0EBB9E912E952E868EF70E848E9D8
:1000C000E8BADABAEBBA80E197E2F9013197F1F7D1
:1000D0000197D9F70BBB80E197E2F9013197F1F76E
:1000E0000197D9F7FBBA80E197E2F9013197F1F76F
:1000F0000197D9F7ABBB80E197E2F9013197F1F7AE
:100100000197D9F7BBBB80E197E2F9013197F1F78D
:100110000197D9F71BBB80E197E2F9013197F1F71D
:100120000197D9F75BBB80E197E2F9013197F1F7CD
:100130000197D9F76BBB80E197E2F9013197F1F7AD
:100140000197D9F77BBB80E197E2F9013197F1F78D
:100150000197D9F74BBB80E197E2F9013197F1F7AD
:100160000197D9F708BBDABAEBBA80E197E2F90157
:100170003197F1F70197D9F70BBB80E197E2F901CD
:100180003197F1F70197D9F7FBBA80E197E2F901CE
:100190003197F1F70197D9F7ABBB80E197E2F9010D
:1001A0003197F1F70197D9F7BBBB80E197E2F901ED
:1001B0003197F1F70197D9F71BBB80E197E2F9017D
:1001C0003197F1F70197D9F75BBB80E197E2F9012D
:1001D0003197F1F70197D9F76BBB80E197E2F9010D
:1001E0003197F1F70197D9F77BBB80E197E2F901ED
:1001F0003197F1F70197D9F74BBB80E197E2F9010D
:100200003197F1F70197D9F7F8BADABAEBBA80E18A
:1002100097E2F9013197F1F70197D9F70BBB80E12C
:1002200097E2F9013197F1F70197D9F7FBBA80E12D
:1002300097E2F9013197F1F70197D9F7ABBB80E16C
:1002400097E2F9013197F1F70197D9F7BBBB80E14C
:1002500097E2F9013197F1F70197D9F71BBB80E1DC
:1002600097E2F9013197F1F70197D9F75BBB80E18C
:1002700097E2F9013197F1F70197D9F76BBB80E16C
:1002800097E2F9013197F1F70197D9F77BBB80E14C
:1002900097E2F9013197F1F70197D9F74BBB80E16C
:1002A00097E2F9013197F1F70197D9F7A8BBDABACC
:1002B000EBBA80E197E2F9013197F1F70197D9F7AD
:1002C0000BBB80E197E2F9013197F1F70197D9F77C
:1002D000FBBA80E197E2F9013197F1F70197D9F77D
:1002E000ABBB80E197E2F9013197F1F70197D9F7BC
:1002F000BBBB80E197E2F9013197F1F70197D9F79C
:100300001BBB80E197E2F9013197F1F70197D9F72B
:100310005BBB80E197E2F9013197F1F70197D9F7DB
:100320006BBB80E197E2F9013197F1F70197D9F7BB
:100330007BBB80E197E2F9013197F1F70197D9F79B
:100340004BBB80E197E2F9013197F1F70197D9F7BB
:10035000B8BBDABAEBBA80E197E2F9013197F1F76D
:100360000197D9F70BBB80E197E2F9013197F1F7DB
:100370000197D9F7FBBA80E197E2F9013197F1F7DC
:100380000197D9F7ABBB80E197E2F9013197F1F71B
:100390000197D9F7BBBB80E197E2F9013197F1F7FB
:1003A0000197D9F71BBB80E197E2F9013197F1F78B
:1003B0000197D9F75BBB80E197E2F9013197F1F73B
:1003C0000197D9F76BBB80E197E2F9013197F1F71B
:1003D0000197D9F77BBB80E197E2F9013197F1F7FB
:1003E0000197D9F74BBB80E197E2F9013197F1F71B
:1003F0000197D9F718BBDABAEBBA80E197E2F901B5
:100400003197F1F70197D9F70BBB80E197E2F9013A
:100410003197F1F70197D9F7FBBA80E197E2F9013B
:100420003197F1F70197D9F7ABBB80E197E2F9017A
:100430003197F1F70197D9F7BBBB80E197E2F9015A
:100440003197F1F70197D9F71BBB80E197E2F901EA
:100450003197F1F70197D9F75BBB80E197E2F9019A
:100460003197F1F70197D9F76BBB80E197E2F9017A
:100470003197F1F70197D9F77BBB80E197E2F9015A
:100480003197F1F70197D9F74BBB80E197E2F9017A
:100490003197F1F70197D9F758BBDABAEBBA80E197
:1004A00097E2F9013197F1F70197D9F70BBB80E19A
:1004B00097E2F9013197F1F70197D9F7FBBA80E19B
:1004C00097E2F9013197F1F70197D9F7ABBB80E1DA
:1004D00097E2F9013197F1F70197D9F7BBBB80E1BA
:1004E00097E2F9013197F1F70197D9F71BBB80E14A
:1004F00097E2F9013197F1F70197D9F75BBB80E1FA
:1005000097E2F9013197F1F70197D9F76BBB80E1D9
:1005100097E2F9013197F1F70197D9F77BBB80E1B9
:1005200097E2F9013197F1F70197D9F74BBB80E1D9
:1005300097E2F9013197F1F70197D9F768BBDABA79
:10054000EBBA80E197E2F9013197F1F70197D9F71A
:100550000BBB80E197E2F9013197F1F70197D9F7E9
:10056000FBBA80E197E2F9013197F1F70197D9F7EA
:10057000ABBB80E197E2F9013197F1F70197D9F729
:10058000BBBB80E197E2F9013197F1F70197D9F709
:100590001BBB80E197E2F9013197F1F70197D9F799
:1005A0005BBB80E197E2F9013197F1F70197D9F749
:1005B0006BBB80E197E2F9013197F1F70197D9F729
:1005C0007BBB80E197E2F9013197F1F70197D9F709
:1005D0004BBB80E197E2F9013197F1F70197D9F729
:1005E00078BBDABAEBBA80E197E2F9013197F1F71B
:1005F0000197D9F70BBB80E197E2F9013197F1F749
:100600000197D9F7FBBA80E197E2F9013197F1F749
:100610000197D9F7ABBB80E197E2F9013197F1F788
:100620000197D9F7BBBB80E197E2F9013197F1F768
:100630000197D9F71BBB80E197E2F9013197F1F7F8
:100640000197D9F75BBB80E197E2F9013197F1F7A8
:100650000197D9F76BBB80E197E2F9013197F1F788
:100660000197D9F77BBB80E197E2F9013197F1F768
:100670000197D9F74BBB80E197E2F9013197F1F788
:100680000197D9F748BBDABAEBBA80E197E2F901F2
:100690003197F1F70197D9F70BBB80E197E2F901A8
:1006A0003197F1F70197D9F7FBBA80E197E2F901A9
:1006B0003197F1F70197D9F7ABBB80E197E2F901E8
:1006C0003197F1F70197D9F7BBBB80E197E2F901C8
:1006D0003197F1F70197D9F71BBB80E197E2F90158
:1006E0003197F1F70197D9F75BBB80E197E2F90108
:1006F0003197F1F70197D9F76BBB80E197E2F901E8
:100700003197F1F70197D9F77BBB80E197E2F901C7
:100710003197F1F70197D9F74BBB80E197E2F901E7
:0E0720003197F1F70197D9F7CBCCF894FFCFC2
:00000001FF
